:100000000C9466010C9497010C9497010C94970141
:100010000C9497010C9497010C9497010C94970100
:100020000C9497010C9497010C9497010C949701F0
:100030000C9497010C94830B0C9497010C949701EA
:100040000C9497010C9497010C9497010C949701D0
:100050000C9497010C9497010C9497010C94390B14
:100060000C9497010C940D0C0C94E30B0C949701D9
:100070000C9497010C9497010C9497010C949701A0
:100080000C9497010C9497010C9497010C94970190
:100090000C9497010C9497010C9497010C94150AF9
:1000A0000C9497010C9497010C9497010C94970170
:1000B0000C9497010C9497010C9497010C94970160
:1000C0000C9497010C9497010C9497010C94970150
:1000D0000C9497010C9497010C9497010C94970140
:1000E0000C9497010C942B040C943A030C94430C3D
:1000F0000C941E030C9453020C9434030C94D709F3
:100100000C94A6040C940E030C9422030C949F06EA
:100110000C9472060C948E080C948D080C942C038D
:100120000C9455070C9439030C9482040C94080722
:100130000C94AE060C9407030C945E040C943E03DE
:100140000C9430030C9448040C9478020C9422060E
:100150000C9426030C94F9020C947F020C94FF0279
:100160000C94D0060C9437040C94C2060C949F0493
:100170000C9455020C9414030C9426060C948E04D3
:100180000C9465020C94AC020C9454020C94180369
:100190000C940B030C942A060C9403030C94560243
:1001A0000C947B040C9479040200002100240027A5
:1001B000002A002D00300033000101000004010777
:1001C000010A0100002200250028002B002E00312A
:1001D00000340002010000050108010B01000020AD
:1001E000002300260029002C002F0032000001000F
:1001F00000030106010901050505050705080808B2
:1002000008020202020A0A080804040404010101A7
:1002100001010101010303030303030303040707AF
:10022000070C0C0C0C0C0C0C0C020202020606064D
:1002300006060606060B0B0B0B0B0B0B0B01021035
:1002400020200808102040102040800201020108F0
:1002500004020101020408102040808040201008A0
:1002600004020180040201804020100804020108F9
:100270000402010102040810204080010204081059
:1002800020408000000A0B02090C0D0E0807030431
:10029000010000000000000000000000000000005D
:1002A000000000000000000000000000000000123C
:1002B000111000000000000000000000000000001D
:1002C00000000000000000000000430C11241FBECD
:1002D000CFEFD1E2DEBFCDBF00E00CBF13E0A0E066
:1002E000B2E0E4EFF8E200E00BBF02C007900D922D
:1002F000A838B107D9F725E0A8E8B3E001C01D92FE
:10030000AC3AB207E1F711E0C6E6D1E000E006C082
:1003100021970109802FFE010E945C14C536D10788
:1003200080E00807A9F70E94420D0C9478140C9401
:10033000000096E0899FD0011124A05DBA4F9096ED
:100340007C936E935F9791E091969C939197E09147
:100350009D05F0919E0590919C05992339F0309769
:1003600051F0811108C080914C051994309719F013
:100370005C968C91FACF0895CF92DF92EF92FF9224
:100380000F931F9396E0899FF0011124E05DFA4FCF
:1003900011A2278D30A12130310551F178F02230A2
:1003A000310509F451C02330310509F452C01F91C1
:1003B0000F91FF90EF90DF90CF9008956623B9F3EF
:1003C00061E070E00E9499012FB7F8948091690470
:1003D00090916A04A0916B04B0916C042FBF80933C
:1003E000880590938905A0938A05B0938B05DFCF8C
:1003F0009FB7F894C0906904D0906A04E0906B04B1
:10040000F0906C049FBF00918805109189052091A0
:100410008A0530918B05C01AD10AE20AF30A0091CD
:100420009A0510919B0530E020E00C151D052E0566
:100430003F0550F462E070E01F910F91FF90EF9044
:10044000DF90CF900C9499016111B1CF63E070E01F
:10045000F3CF70E060E0F0CF20911D04260F33272A
:10046000331F21323105ECF420914304FC0190E06C
:1004700080E0243069F082E00895A0911D0421916C
:10048000AC0145505C4FA40FB52FB11D2C930196C4
:10049000861798F380911D04680F60931D0480E017
:1004A000089581E00895089508950895E091F20374
:1004B0008091F103E81730F4F0E0EF52FC4F8081B7
:1004C00090E008958FEF9FEF08959091F20380914F
:1004D000F1032FEF3FEF981748F4E92FF0E0EF52C8
:1004E000FC4F208130E09F5F9093F203C901089593
:1004F0008091F1039091F203891B990B0895CF929B
:10050000DF92EF92FF920F931F93CF93DF937C01C3
:10051000CB018A012091D003222389F0EB016B01EA
:10052000C40ED51ECC15DD0569F06991D701ED919A
:10053000FC910190F081E02DC7011995F3CF642F54
:100540000E942C02C801DF91CF911F910F91FF9063
:10055000EF90DF90CF900895CF93DF931F92CDB7A8
:10056000DEB769832091D0032223F9F02091F303B1
:10057000203258F021E030E0FC013383228390E008
:1005800080E00F90DF91CF9108958091F403E82FE0
:10059000F0E0E055FC4F998190838F5F8093F403E6
:1005A0008093F30381E090E0ECCF61E0CE0101960F
:1005B0000E942C02F7CF8150823108F05AC0E82FF8
:1005C000F0E08827E951FD4F8F4F0C945C1407032E
:1005D0000B03F902FF02030339030E03140318038C
:1005E0001E03220326032C033003390334033A038A
:1005F0003E03809180008F778093800008958091E2
:1006000080008F7DF9CF80918000877FF5CF84B502
:100610008F7784BD089584B58F7DFBCF8091B00026
:100620008F778093B00008958091B0008F7DF9CFCF
:10063000809190008F778093900008958091900032
:100640008F7DF9CF80919000877FF5CF8091A000BA
:100650008F778093A00008958091A0008F7DF9CFBF
:100660008091A000877FF5CF809120018F778093C4
:1006700020010895809120018F7DF9CF8091200184
:10068000877FF5CFCF93DF93282F30E0F901ED5727
:10069000FD4F8491F901E35CFD4FD491F901E950DC
:1006A000FE4FC491CC23A1F081110E94DB02EC2FFC
:1006B000F0E0EE0FFF1FE352FE4FA591B491EC91D5
:1006C000ED2381E090E009F480E0DF91CF9108957F
:1006D00080E090E0FACF1F93CF93DF93282F30E094
:1006E000F901ED57FD4F8491F901E35CFD4FD49181
:1006F000F901E950FE4FC491CC23A9F0162F8111C6
:100700000E94DB02EC2FF0E0EE0FFF1FED53FE4FD7
:10071000A591B4918FB7F894EC91111108C0D095C0
:10072000DE23DC938FBFDF91CF911F910895DE2BE5
:10073000F8CFCF93DF93EC0180911E0590911F05B8
:10074000029749F4C130D10509F43DC07CF560E061
:10075000209709F439C080911E0590911F050497D8
:1007600049F4C130D10509F45EC00CF039C02097BE
:1007700009F444C080911E0590911F05059709F06A
:10078000E7C0CA30D10508F0E3C0FE018827E45372
:10079000FC4F8F4F0C945C142B04370448045E0408
:1007A00079047B0482048E049F04A604C230D10520
:1007B000A9F060E0C330D10571F6809122050E9456
:1007C0006B0360E006C061E0809122050E946B032C
:1007D00061E0809124050E946B03BDCF61E0EDCF05
:1007E000C230D10539F1C330D10509F0C3CF61E082
:1007F000809122050E946B0360E022C061E080913D
:1008000022050E946B0360E0809124050E946B0327
:1008100061E0809126050E946B0360E080912805CD
:100820000E946B03A7CF60E0809122050E946B03BA
:1008300061E0EACF60E0809122050E946B0361E0F5
:10084000809124050E946B0360E0809126050E9440
:100850006B0361E0E3CF60E0809122050E946B03AF
:1008600061E0809124050E946B0361E00BC060E0B1
:10087000809122050E946B0361E0809124050E9413
:100880006B0360E0809126050E946B0360E010C05E
:1008900060E0809122050E946B0361E08091240555
:1008A0000E946B0360E0809126050E946B0361E06B
:1008B000809128050E946B0361E015C060E0809183
:1008C00022050E946B0361E0809124050E946B0366
:1008D00060E0809126050E946B0361E0809128050D
:1008E0000E946B0360E080912A05DF91CF910C9408
:1008F0006B0361E0E4CF61E0809122050E946B030D
:1009000060E0E2CF61E0809122050E946B0360E02D
:10091000809124050E946B0361E0DBCF61E0809150
:1009200022050E946B0360E0809124050E946B0306
:1009300061E0809126050E946B0360E0CFCF61E00B
:10094000809122050E946B0360E08BCF60E0F8CFBE
:10095000DF91CF9108951092430481E08093450484
:100960001092440461E084E10E946B0361E085E140
:100970000E946B03E9EBF0E080818E7F80838081B1
:100980008D7F808388E48093B80085E48093BC00E9
:100990000895CF93DF9391E09093FA038823B9F001
:1009A000C091B800D091BA008091BC008A7B80933E
:1009B000BC0060E084E10E946B0360E085E10E947E
:1009C0006B030E94AB04D093BA00C093B800DF91D0
:1009D000CF910895CF93DF9390E0FC01E35CFD4F4E
:1009E000249189509E4FFC0184918823C9F090E0A6
:1009F000880F991FFC01E755FE4FA591B491FC01AA
:100A0000ED53FE4FC591D49161110DC09FB7F8947D
:100A10008C91209582238C938881282328839FBFE3
:100A2000DF91CF910895623051F49FB7F8943C91D3
:100A3000822F809583238C93E8812E2BEFCF8FB765
:100A4000F894EC912E2B2C938FBFEACF3FB7F894FC
:100A50008091AC039091AD03A091AE03B091AF0330
:100A600026B5A89B05C02F3F19F00196A11DB11D09
:100A70003FBFBA2FA92F982F8827BC01CD01620F45
:100A8000711D811D911D42E0660F771F881F991F00
:100A90004A95D1F708954F925F926F927F928F920D
:100AA0009F92AF92BF92EF92FF920F931F93CF93BB
:100AB000DF93EC0197FF04C0CC27DD27C81BD90BBF
:100AC000181619060CF061C081E090E090931705AC
:100AD0008093160504E010E08AE0E82EF12C2097C0
:100AE00009F46FC00E94260580902C0590902D057A
:100AF000A0902E05B0902F052B013C0148185908F5
:100B00006A087B088090180590901905A0901A0536
:100B1000B0901B05481459046A047B0400F36093E9
:100B20002C0570932D0580932E0590932F058091B1
:100B3000200590912105209116053091170521304F
:100B4000310559F501969093210580932005209158
:100B50001C0530911D058217930721F41092210581
:100B600010922005219780912005909121052091D8
:100B70001E0530911F05B7012530310509F0B80178
:100B80000E9407140E949903AACF892B09F4A2CFCF
:100B900010921705109216059DCF892B41F4809174
:100BA0001C0590911D05909321058093200580914F
:100BB00020059091210501979093210580932005B0
:100BC000D1CFDF91CF911F910F91FF90EF90BF9008
:100BD000AF909F908F907F906F905F904F9008950F
:100BE0008F929F92AF92BF92CF92DF92EF92FF923D
:100BF0004B015C010E9426056B017C010E942605C9
:100C00006C197D098E099F09683E73408105910525
:100C1000A8F321E0821A9108A108B10888EEC80E55
:100C200083E0D81EE11CF11C81149104A104B104DD
:100C300029F7FF90EF90DF90CF90BF90AF909F90FB
:100C40008F900895862F642F0C94EA04862F642FCA
:100C50000C946B03862F0C9442039091000289132D
:100C60000DC0E8EAF1E0E4919FEF90930002E230DA
:100C7000E1F038F4EE2381F0E13089F060E00C948B
:100C80006B03E43049F110F1E530C1F79091730046
:100C90009D7F90937300F2CF10926E00EFCF9091F2
:100CA0006F009D7F90936F00E9CF909170009D7FC2
:100CB0009093700091E09093B0009091B100987F74
:100CC00094609093B1001092B300D8CF90917100CE
:100CD0009D7F90937100D2CF909172009D7F9093F1
:100CE0007200CCCFAF92BF92CF92DF92EF92FF9281
:100CF0000F931F93CF93DF936C017B018B01040F44
:100D0000151FEB015E01AE18BF08C017D10759F0DF
:100D10006991D601ED91FC910190F081E02DC60121
:100D20001995892B79F7C501DF91CF911F910F910B
:100D3000FF90EF90DF90CF90BF90AF900895FC01AF
:100D4000538D448D252F30E0842F90E0821B930B30
:100D5000541710F0CF96089501970895FC01918DD6
:100D6000828D981761F0A28DAE0FBF2FB11D5D96D9
:100D70008C91928D9F5F9F73928F90E008958FEF7B
:100D80009FEF0895FC01918D828D981731F0828D2F
:100D9000E80FF11D858D90E008958FEF9FEF089586
:100DA000FC01918D228D892F90E0805C9F4F821BEA
:100DB00091098F739927089589E794E00E94D006DE
:100DC00021E0892B09F420E0822F0895FC01A48DF5
:100DD000A80FB92FB11DA35ABF4F2C91848D90E05D
:100DE00001968F739927848FA689B7892C93A08940
:100DF000B1898C91837080648C93938D848D9813CA
:100E000006C00288F389E02D80818F7D808308955C
:100E1000EF92FF920F931F93CF93DF93EC0181E04A
:100E2000888F9B8D8C8D98131AC0E889F9898081F1
:100E300085FF15C09FB7F894EE89FF896083E88924
:100E4000F98980818370806480839FBF81E090E016
:100E5000DF91CF911F910F91FF90EF900895F62EA3
:100E60000B8D10E00F5F1F4F0F731127E02E8C8D3D
:100E70008E110CC00FB607FCFACFE889F989808182
:100E800085FFF5CFCE010E94E606F1CFEB8DEC0F8A
:100E9000FD2FF11DE35AFF4FF0829FB7F8940B8F9F
:100EA000EA89FB8980818062CFCFCF93DF93EC0109
:100EB000888D8823B9F0AA89BB89E889F9898C9142
:100EC00085FD03C0808186FD0DC00FB607FCF7CFFE
:100ED0008C9185FFF2CF808185FFEDCFCE010E94FE
:100EE000E606E9CFDF91CF91089580E090E0892B6D
:100EF00029F00E94DC0681110E94000080E090E051
:100F0000892B49F080E090E0892B29F00E940000B5
:100F100081110E94000080E090E0892B49F080E080
:100F200090E0892B29F00E94000081110E940000AE
:100F300080E090E0892B49F080E090E0892B29F057
:100F40000E94000081110C9400000895CF92DF925E
:100F5000EF92FF920F931F93CF93DF93FC01C48115
:100F600021E02093D003C09388031092F4031092E1
:100F7000F3038485682B8DE694E00E94AC02D09147
:100F8000F303D13208F092C00E9426056B017C0168
:100F900080914304811165C082E08093430481E025
:100FA000809345048FEF8093420410926704D0939E
:100FB0006604A0EBB3E0E6E4F4E080E0D81385C07B
:100FC0001092680480916804CC0FC82BC093680409
:100FD00080914404813009F07CC0109244040E9446
:100FE00026056B017C01809168048093BB00809191
:100FF000F6039091F703A091F803B091F903892BC0
:101000008A2B8B2B99F00E9426050091F6031091F4
:10101000F7032091F8033091F9036C197D098E09CB
:101020009F090617170728073907E0F18091BC00D0
:1010300083FDD9CF85EC8093BC000E9426056B010F
:101040007C0180914304823009F445C080914204C0
:101050008F3F61F180914204803241F180914204DE
:1010600025C08091F6039091F703A091F803B09109
:10107000F903892B8A2B8B2B09F48ACF0E94260532
:101080000091F6031091F7032091F8033091F903D2
:101090006C197D098E099F0906171707280739075C
:1010A00008F076CF8091F5030E94C9041092F403F2
:1010B0001092F3031092D003DF91CF911F910F9103
:1010C000FF90EF90DF90CF9008959D9191938F5F67
:1010D00075CF85EEB0CF8091F6039091F703A09184
:1010E000F803B091F903892B8A2B8B2B09F4A9CF34
:1010F0000E9426050091F6031091F7032091F80352
:101100003091F9036C197D098E099F09061717079D
:101110002807390708F095CFC5CF089590E080E003
:101120000895FC0124813581C90183709927892B99
:1011300039F4C90164E670E00E940714892B39F480
:10114000C90160E971E00E940714892B19F481E05C
:1011500086830895168280E008958F929F92AF92C1
:10116000BF920F931F93CF93DF93CDB7DEB7A197B5
:101170000FB6F894DEBF0FBECDBF19A2423008F4FF
:101180004AE08E010F5D1F4F842E912CB12CA12CB3
:10119000A50194010E941B14E62FB901CA01EA308F
:1011A00044F5E05DD801EE938D01232B242B252BF4
:1011B00079F790E080E0109769F0FD010190002040
:1011C000E9F73197AF014A1B5B0BBD0189E794E05A
:1011D0000E947206A1960FB6F894DEBF0FBECDBF77
:1011E000DF91CF911F910F91BF90AF909F908F9003
:1011F0000895E95CD7CFCF92DF92EF92FF92CF9321
:10120000DF936C01990FEE08FF08F7FE19C06DE23D
:1012100089E794E00E940807EC0166277727CB0155
:101220006C197D098E099F094AE00E94AD088C0F58
:101230009D1FDF91CF91FF90EF90DF90CF900895A9
:101240004AE0C701B601DF91CF91FF90EF90DF90A8
:10125000CF900C94AD080F931F93CF938C01C62FA2
:101260000E94A6076C2F6460C8010E94A6076C2F1D
:101270006B7FC8010E94A60783EC90E00197F1F70D
:10128000CF911F910F9108950F931F93CF93DF93E9
:101290008C01D62FC42F607F642B0E942B0980E124
:1012A000D89FB00111246C2BC801DF91CF911F9101
:1012B0000F910C942B09CF93DF9300D000D01F9295
:1012C0001F92CDB7DEB798E0E9E1F2E0DE011196BA
:1012D00001900D929A95E1F79091A705981708F45F
:1012E0008FEF90E0880F991F21E030E02C0F3D1F19
:1012F000820F931FFC016081606840E08FE995E0F8
:1013000028960FB6F894DEBF0FBECDBFDF91CF9108
:101310000C94440940E061E08FE995E00E944409A3
:101320008BE39FE10197F1F78091A805882319F0DD
:1013300080E00C945B0908950F931F93CF93DF9384
:101340008C01EB0188E08093AB0560E08FE995E0CC
:101350000E94A6070E948A0980E00E945B09F801AA
:1013600001900020E9F73197AF01401B510BB80104
:101370008FE995E00E94720681E00E945B09209748
:1013800089F0FE0101900020E9F73197AF014C1B75
:101390005D0BBE018FE995E0DF91CF911F910F9119
:1013A0000C947206DF91CF911F910F91089541E047
:1013B0000E94440981E090E0089585ED8093BC008F
:1013C0008091F6039091F703A091F803B091F9038F
:1013D0000796A11DB11D23E0B695A7959795879512
:1013E0002A95D1F72091BC0024FD03C0109243043C
:1013F00008954091F6035091F7036091F8037091BE
:10140000F903452B462B472B69F30097A105B1053E
:1014100041F02AE22A95F1F700C00197A109B1092C
:10142000E1CF8091F5030C94C9041F920F920FB67F
:101430000F9211240BB60F922F933F934F935F930C
:101440006F937F938F939F93AF93BF93EF93FF938C
:101450008091B900887F803609F44DC008F040C003
:10146000883209F4A9C028F5803109F49DC0C8F478
:10147000882309F4FBC0883009F496C0FF91EF91EE
:10148000BF91AF919F918F917F916F915F914F919C
:101490003F912F910F900BBE0F900FBE0F901F909A
:1014A0001895883109F488C0803241F7809342044E
:1014B00014C0803409F49DC040F48033B9F38833FC
:1014C000E9F68093420485ECB0C0803509F485C00C
:1014D000883509F496C0883489F60E94DD09CECF9C
:1014E000883909F48CC038F5883729F050F48836EB
:1014F00011F0803719F683E0809343041092410481
:1015000057C0883809F47BC0803919F0803809F059
:10151000B5CF80914104803208F071C0E091410460
:1015200081E08E0F809341048091BB00F0E0EF5D7D
:10153000FB4F80833DC0803B39F0E0F4803A09F4F2
:1015400079C0883A09F09ACF84E0809343041092DE
:101550001E0410921D04E0911B04F0911C041995C7
:1015600080911D0481110FC081E080931D041092B1
:10157000FB0309C0803C09F4A6CF883C09F4A3CF43
:10158000883B09F07BCFE0911E0481E08E0F8093B1
:101590001E04F0E0E550FC4F80818093BB009091E9
:1015A0001E0480911D0429C0809168048093BB00B3
:1015B00085EC8093BC0062CF9091670480916604B3
:1015C000981758F5E091670481E08E0F80936704C7
:1015D000F0E0EA5BFB4F8081E9CFE091670481E0B6
:1015E0008E0F809367048091BB00F0E0EA5BFB4FB5
:1015F000808390916704809166049817C8F285E80B
:10160000D8CFE091670481E08E0F809367048091CA
:10161000BB00F0E0EA5BFB4F8083809145048111C1
:101620005CCF81E08093440484EA8093BC001092F4
:10163000430424CF85EC8093BC0010924304809136
:101640004104803230F4E0914104F0E0EF5DFB4F63
:1016500010826091410470E0E0911F04F091200439
:1016600081E294E019951092410408CF109242044F
:1016700034CF1F920F920FB60F9211242F933F93E6
:101680008F939F93AF93BF938091690490916A0465
:10169000A0916B04B0916C043091AB0323E0230F55
:1016A0002D3758F50196A11DB11D2093AB038093F2
:1016B000690490936A04A0936B04B0936C048091C6
:1016C000AC039091AD03A091AE03B091AF0301962E
:1016D000A11DB11D8093AC039093AD03A093AE0305
:1016E000B093AF03BF91AF919F918F913F912F9195
:1016F0000F900FBE0F901F90189526E8230F0296AB
:10170000A11DB11DD2CF1F920F920FB60F921124BF
:101710000BB60F922F933F934F935F936F937F93EB
:101720008F939F93AF93BF93EF93FF9380919F030A
:101730009091A003A091A103B091A203892B8A2BC1
:101740008B2BE1F190918E03E0918F03F091900348
:1017500080818927808380919F039091A003A0912D
:10176000A103B091A203181619061A061B069CF4D1
:1017700080919F039091A003A091A103B091A20337
:101780000197A109B10980939F039093A003A093AF
:10179000A103B093A203FF91EF91BF91AF919F91ED
:1017A0008F917F916F915F914F913F912F910F900A
:1017B0000BBE0F900FBE0F901F90189580910002E6
:1017C0000E942D06E8CF1F920F920FB60F921124A0
:1017D0000BB60F922F933F934F935F936F937F932B
:1017E0008F939F93AF93BF93EF93FF9389E794E019
:1017F0000E94E606FF91EF91BF91AF919F918F916B
:101800007F916F915F914F913F912F910F900BBE00
:101810000F900FBE0F901F9018951F920F920FB64A
:101820000F9211240BB60F922F938F939F93EF93E8
:10183000FF93E0918904F0918A048081E0918F0404
:10184000F091900482FD1DC09081809192048F5F81
:101850008F7320919304821741F0E0919204F0E09D
:10186000E758FB4F958F80939204FF91EF919F91E2
:101870008F912F910F900BBE0F900FBE0F901F9066
:1018800018958081F2CF1092700410926F0488EE48
:1018900093E0A0E0B0E08093710490937204A09371
:1018A0007304B09374042DE632E030936E042093F9
:1018B0006D0410927C0410927B0480937D049093BD
:1018C0007E04A0937F04B09380048FE792E090930E
:1018D0007A048093790485EC90E090938604809359
:1018E000850484EC90E0909388048093870480ECD6
:1018F00090E090938A048093890481EC90E0909327
:101900008C0480938B0482EC90E090938E048093FF
:101910008D0486EC90E09093900480938F04109255
:1019200092041092930410929404109295041092D1
:10193000A2051092A1058BE992E09093A0058093F7
:101940009F051092A8058FE38093A30580E1809303
:10195000A90582E08093AA051092AB05109232058A
:1019600010923605109235051092370581E992E004
:101970009093310580933005ECE4F5E010821482F9
:1019800013821582369685E0E838F807B9F785E0C6
:1019900092E0909393058093920581E092E090937A
:1019A00095058093940584E0809396058093970530
:1019B00089E092E090939105809390058AE090E011
:1019C000909399058093980524EF31E030939B051F
:1019D00020939A0510929E0510929D0510928C05F9
:1019E00010928D0510928E0510928F0510929C0515
:1019F00010922105109220051092170510921605DD
:101A000010922C0510922D0510922E0510922F0584
:101A100028EC30E030931D0520931C05909323059E
:101A2000809322058BE090E0909325058093240518
:101A30008CE090E090932705809326058DE090E060
:101A4000909329058093280561E08AE00E94EA04CA
:101A500061E0809124050E94EA0461E080912605FE
:101A60000E94EA0461E0809128050E94EA04109235
:101A70002B0510922A0584E090E090931F05809337
:101A80001E050895CF93DF93CDB7DEB7C455D109B6
:101A90000FB6F894DEBF0FBECDBF789484B58260D8
:101AA00084BD84B5816084BD85B5826085BD85B502
:101AB000816085BD80916E00816080936E00109280
:101AC00081008091810082608093810080918100FB
:101AD000816080938100809180008160809380008C
:101AE0008091B10084608093B1008091B0008160EA
:101AF0008093B000809191008260809391008091EA
:101B0000910081608093910080919000816080932A
:101B100090008091A10082608093A1008091A1003B
:101B200081608093A1008091A00081608093A000DB
:101B30008091210182608093210180912101816047
:101B40008093210180912001816080932001809108
:101B50007A00846080937A0080917A00826080931A
:101B60007A0080917A00816080937A0080917A0077
:101B7000806880937A001092C100E0918904F0910E
:101B80008A0482E08083E0918504F09186041082CB
:101B9000E0918704F09188048FEC80831092910487
:101BA000E0918D04F0918E0486E08083E0918B04B7
:101BB000F0918C04808180618083E0918B04F091AE
:101BC0008C04808188608083E0918B04F0918C0488
:101BD000808180688083E0918B04F0918C04808107
:101BE0008F7D80831092F2031092F1031092F40320
:101BF0001092F3030E94AB0483E592E090931C04DF
:101C000080931B0484E592E09093200480931F044A
:101C10001092A4058091AA05823018F098E0909364
:101C2000A4058093A70562E370E080E090E00E9445
:101C3000F0056091AB058FE995E00E94A60768EE7C
:101C400073E080E090E00E94F00560E38FE995E0AA
:101C50000E942B090BE416E4C8010197F1F760E339
:101C60008FE995E00E942B09C8010197F1F760E325
:101C70008FE995E00E942B0983E592E00197F1F747
:101C800060E28FE995E00E942B096091A4056062F3
:101C900040E08FE995E00E94440984E08093A50527
:101CA00040E06CE08FE995E00E9444090E948A09B7
:101CB00082E08093A60540E066E08FE995E00E940F
:101CC000440940E062E08FE995E00E9444098BE31B
:101CD0009FE10197F1F712E060E0812F0E94EA0492
:101CE0001F5F1A30C9F78BE0EEECF2E0DE01AD5B6E
:101CF000BF4F01900D928A95E1F7BE016D5B7F4F5A
:101D000083EA92E00E949C0910E000E0412C512CF3
:101D10003201439421E020939C058FB7F8944091C1
:101D2000690450916A0460916B0470916C048FBFD8
:101D300080918C0590918D05A0918E05B0918F05B5
:101D4000481B590B6A0B7B0B809198059091990564
:101D5000B0E0A0E084179507A607B707D8F6F12CE6
:101D600080919605F81660F4E0919205F091930544
:101D7000EF0DF11D62E080810E94EA04F394F0CF40
:101D8000312C80919705381608F062C0C32CD12CF5
:101D9000E0919405F0919505EC0DFD1D61E08081C9
:101DA0000E94EA04E0919405F0919505EC0DFD1D6B
:101DB00060E080810E946B03D301C201032C04C048
:101DC000880F991FAA1FBB1F0A94D2F74C015C0110
:101DD000A094B094212C80919605281610F5E22C41
:101DE000F12CE0919205F0919305EE0DFF1D80819D
:101DF0000E944203A7014C5F5F4FFA01EE0FFF1FE5
:101E0000E05DFA4F892B41F48081918188299929DD
:101E1000918380832394DFCF808191818A219B21CC
:101E2000F7CFE0919405F0919505EC0DFD1D61E073
:101E300080810E946B038091940590919505C80E56
:101E4000D91E60E0F60180810E94EA04339499CFA4
:101E500060E3E62E65E0F62E6701F601878D90A11E
:101E6000892B31F4148E2FEF3FEF368F258F11A27F
:101E700036E0C30ED11C4CE6C41645E0D40669F723
:101E8000B12C80919605B81608F053C0A12C8B2C6C
:101E9000912C880C991CC401885C9A4F4C012091AC
:101EA0009705A21608F043C0F401608171810A2CE5
:101EB00002C0769567950A94E2F7B29E90011124CC
:101EC0002A0D311DE0E3F5E080E0458D568D2417A5
:101ED000350709F49AC48F5F36968A30B1F760FFF0
:101EE00024C0E0E3F5E090E080E0448D411118C0AB
:101EF000E0919005F0919105E20FF31F408156E0CB
:101F0000589FF001599FF00D1124E05DFA4F448F66
:101F1000368F258F10A2178E61E00E94BC0105C08C
:101F2000019636968A30910501F7A394B8CFB39401
:101F3000A8CF80E0F70191A19111892FF6E0EF0E73
:101F4000F11CCE14DF04B1F79FB7F89440916904F7
:101F500050916A0460916B0470916C049FBF409330
:101F60008C0550938D0560938E0570938F058823A3
:101F700009F4D0CE80915105882309F4CBCE80910D
:101F80004F0590915005019709F0C4CE80914C0502
:101F9000882309F4BFCE90ED980F9A3028F50A30C7
:101FA000110584F4E3E4F0E0EC0FFD1FE00FF11FF6
:101FB00080830F5F1F4FBE016D5B7F4F83EA92E00E
:101FC0000E949C090230110521F00530110509F02D
:101FD000A1CEE3E4F0E0EC0FFD1FE00FF11F8FE274
:101FE00080830F5F1F4F96CE833209F05CC20A30A8
:101FF000110544F324964FAD2497042E000C550B85
:10200000405351092AE0249FC001259F900D1124BF
:102010002596CFAC25970C2C000CDD0830E3C31AB5
:10202000D108C80ED91E27964FAD2797042E000C55
:10203000550B40535109249FC001259F900D112439
:102040002896EFAC28970E2C000CFF0840E3E41A0A
:10205000F108E80EF91E2A968FAD2A97082E000C7B
:10206000990BC097E8EEF3E08E9F80018F9F100DD3
:102070009E9F100D11242B968FAD2B97082E000CD0
:10208000990BC09734E6389FA001399F500D112459
:10209000040F151F2C968FAD2C97082E000C990B52
:1020A000C097289FA001299F500D1124040F151FD0
:1020B0002D968FAD2D97082E000C990BC097080F09
:1020C000191F6096DFAECEAE60976296FFAEEEAEA1
:1020D000629764961FAF0EAF649765961FAE6597C3
:1020E000CE01825B9F4F0E94910888E1E1E2F2E01D
:1020F000DE01119601900D928A95E1F762962EAD60
:102100003FAD6297C90101978C30910508F0AAC1D3
:102110002230310549F465962FAD6597222321F0D1
:102120002DE130E03C832B8360962EAD3FAD609770
:10213000121613060CF096C1880F991FE1E0F0E02B
:10214000EC0FFD1FE80FF91F808191818217930723
:102150000CF488C1C6010E94FB0841E050E064EB2A
:1021600072E089E794E00E947206C7010E94FB08B2
:1021700041E050E064EB72E089E794E00E9472066F
:10218000C8010E94FB08DEAACDAAF8AEEFAA1AAFDA
:1021900009AF1BAECE01C5960E9491086DA97EA91C
:1021A0008FA998AD4BAD38E1E9E3F2E0DE0111967D
:1021B00001900D923A95E1F7FC013197EE0FFF1F68
:1021C00021E030E02C0F3D1FE20FF31F2081318111
:1021D000260F371F03970CF082C184E190E09C83A7
:1021E0008B8382E390E09E838D8380E590E09887E7
:1021F0008F838EE690E09A8789878CE890E09C87B1
:102200008B878BEA90E09E878D878AEC90E0988B95
:102210008F8789EE90E09A8B898B87E091E09C8B89
:102220008B8B85E291E09E8B8D8B82E491E0988F81
:102230008F8B84E691E09A8F898F81E390E09E8F67
:102240008D8F8FE490E098A38F8F8DE690E09AA316
:1022500089A38BE890E09CA38BA38AEA90E09EA3DD
:102260008DA389EC90E098A78FA388EE90E09AA7C1
:1022700089A786E091E09CA78BA784E291E09EA7C6
:102280008DA781E491E098AB8FA783E691E09AABAC
:1022900089AB8DE691E09CAB8BAB8BAD45E651E015
:1022A000811102C041E050E05A834983882309F438
:1022B0001CC18EE691E09C8F8B8FFE01319690E0E1
:1022C00080E041915191241735070CF414C1408DE1
:1022D000518D421753070CF40EC18C30910509F44F
:1022E00007C101969DAF8CAF0CAD1DAD69ED72E0DD
:1022F00089EE92E00E949C09580174E0AA0CBB1C74
:102300007A95E1F7B0928A03A092890320911C0587
:1023100030911D05032E000C440B550BC12CE7E832
:10232000DE2EE3E9EE2EE3E0FE2EC701B6010E94A9
:102330003D14CA01B90128E230E040E050E00E94BB
:102340003D14209318053093190540931A055093B6
:102350001B05C5010E944B05000F111FF801E15B31
:10236000FD4F6081718188EF92E00E949C0960E1DD
:1023700077E280E090E00E94F00569E073E086E19A
:1023800093E00E949C0920911C0530911D05032EAD
:10239000000C440B550BC701B6010E943D14CA0145
:1023A000B9012CE330E040E050E00E943D1420935E
:1023B00018053093190540931A0550931B05809119
:1023C000890390918A039195819591090E944B050B
:1023D00068E873E180E090E00E94F00561E085E349
:1023E0000E94EA04A2E0AA2EB12C22242A94322CC4
:1023F00021011FE3C12E16E0D12E08EA802E01E054
:10240000902E8CE2682E82E0782E92E7E92E92E000
:10241000F92E80910002853309F077C0F401149100
:1024200017FFC9C068EC70E080E090E00E94F00502
:1024300085E30E942D0668EC70E080E090E00E9449
:10244000F005AA94AB2809F05CC088E198E00FB6CB
:10245000F894A895809360000FBE909360000E944E
:102460007507FDCF66EB72E086EC92E00E949C0956
:1024700068EB7BE080E090E00E94F005EEECF2E09B
:10248000DE01AD5BBF4F81918D9332E0E93DF307F3
:10249000D1F7BE016D5B7F4F83EA92E00E949C09F9
:1024A00010E000E037CC8A3209F08CCD101611060E
:1024B0000CF030CC0330110529F081E090E00630BB
:1024C000110511F482E090E0081B190BE3E4F0E041
:1024D000EC0FFD1FE00FF11F8FE580836CCD4423CF
:1024E00009F47BCE2F5F3F4F78CE83E190E0E3CEBF
:1024F00081E090E0F7CE01968D30910509F0E1CEB4
:10250000F3CEAA24A394B12C84CF8F3F09F08ACFB5
:1025100085E380930002F4011491812F1F3F09F499
:1025200081CF123009F485C060F4112371F11130AC
:1025300009F462C087FD76CF61E085E30E94EA047A
:1025400041C0143009F4B4C008F494C0153091F7B8
:1025500010922001109221018091210188608093C6
:10256000210180912101816080932101F3018491F7
:10257000E82FF0E0EE0FFF1FED53FE4F8591949191
:10258000F701849180938B0316C014BC15BC84B5ED
:10259000826084BD85B5816085BDF3018491E82F9B
:1025A000F0E0EE0FFF1FED53FE4F85919491F70180
:1025B00084918093920361E085E30E94EA041123F1
:1025C00009F493C0123009F0A4C08091B100887F53
:1025D00082608093B10087EC8093B30020929F03C8
:1025E0003092A0034092A1035092A2038091700008
:1025F00082608093700016CF10928000109281004C
:102600008091810088608093810080918100816049
:1026100080938100F3018491E82FF0E0EE0FFF1F1B
:10262000ED53FE4F85919491F7018491809391032E
:10263000C2CF1092B0001092B1008091B0008260C1
:102640008093B0008091B10081608093B100F3016C
:102650008491E82FF0E0EE0FFF1FED53FE4F8591C0
:1026600094919093900380938F03F70184918093CA
:102670008E03A1CF10929000109291008091910052
:102680008860809391008091910081608093910097
:10269000F3018491E82FF0E0EE0FFF1FED53FE4FA2
:1026A00085919491F701849180938D0313E083CFFA
:1026B0001092A0001092A1008091A10088608093E8
:1026C000A1008091A10081608093A100F301849119
:1026D000E82FF0E0EE0FFF1FED53FE4F8591949130
:1026E000F701849180938C0366CF85B5887F8260E3
:1026F00085BD87EC87BD2092A7033092A803409246
:10270000A9035092AA0380916E00826080936E00AC
:1027100089CE1130C1F480918100887F81608093DF
:102720008100D0928900C09288002092A303309249
:10273000A4034092A5035092A60380916F0082608B
:1027400080936F006FCE1330C1F480919100887F29
:10275000816080939100D0929900C092980020925D
:102760009B0330929C0340929D0350929E03809164
:10277000710082608093710055CE1430C1F4809155
:10278000A100887F81608093A100D092A900C092AF
:10279000A800209297033092980340929903509298
:1027A0009A03809172008260809372003BCE153054
:1027B000C1F480912101887F816080932101D092B2
:1027C0002901C092280120929303309294034092F1
:1027D00095035092960380917300826080937300FA
:1027E00021CE123081F034F4112359F0113009F464
:1027F00098CF18CE143049F20CF4ADCF1530F9F261
:1028000011CE8FE377CF8FE3E7CE617086CB97FB56
:10281000072E16F4009407D077FD09D00E946414A7
:1028200007FC05D03EF4909581959F4F08957095D3
:1028300061957F4F0895A1E21A2EAA1BBB1BFD01D3
:102840000DC0AA1FBB1FEE1FFF1FA217B307E4078F
:10285000F50720F0A21BB30BE40BF50B661F771FE7
:10286000881F991F1A9469F76095709580959095C7
:102870009B01AC01BD01CF010895052E97FB1EF40D
:1028800000940E94541457FD07D00E941B1407FCAB
:1028900003D04EF40C9454145095409530952195E6
:1028A0003F4F4F4F5F4F089590958095709561957C
:1028B0007F4F8F4F9F4F0895EE0FFF1F881F8BBFD5
:1028C0000790F691E02D1994AA1BBB1B51E107C09C
:1028D000AA1FBB1FA617B70710F0A61BB70B881FB0
:1028E000991F5A95A9F780959095BC01CD0108953F
:0428F000F894FFCF8A
:1028F400FF06070809020304053132334134353633
:1029040042373839432A302344000040001400542D
:10291400001F001C001F001E001F001E001F001FC0
:10292400001E001F001E001F0000001F003B005A75
:102934000078009700B500D400F300110130014E77
:10294400012503300339033F0346034B0353035A62
:10295400036003680371037B0300000000AC027F83
:10296400028E085502780265025602000000000833
:102974000772069F065507D006AE06C20600000081
:1029840000220626062A0600000000D70972068ED9
:10299400088D0844617461206469206E6173636901
:1029A40074613A002F0044617461206E6F6E20766A
:1029B400616C696461004572726F72653A005F5FB1
:1029C4002F5F5F2F5F5F5F5F00696C2074756F20FE
:1029D4007365676E6F2E2E2E0053746F2063616CC7
:1029E400636F6C616E646F005365676E6F205A6F1E
:1029F40064696163616C653A004E6F6E20746F6345
:102A04006361726521005265736574204D6163636F
:102A140068696E61004341505249434F524E4F0022
:102A2400414351554152494F005045534349004198
:102A3400524945544500544F524F0047454D454C6B
:102A44004C490043414E43524F004C454F4E4500C4
:102A540056455247494E450042494C414E4349412F
:102A64000053434F5250494F4E4500534147474945
:082A740054544152494F000087
:00000001FF
